{
  "abi": [
    {
      "inputs": [
        {
          "internalType": "address",
          "name": "_dapptokenaddress",
          "type": "address"
        }
      ],
      "stateMutability": "nonpayable",
      "type": "constructor"
    },
    {
      "anonymous": false,
      "inputs": [
        {
          "indexed": false,
          "internalType": "uint256",
          "name": "",
          "type": "uint256"
        }
      ],
      "name": "Amount",
      "type": "event"
    },
    {
      "anonymous": false,
      "inputs": [
        {
          "indexed": true,
          "internalType": "address",
          "name": "previousOwner",
          "type": "address"
        },
        {
          "indexed": true,
          "internalType": "address",
          "name": "newOwner",
          "type": "address"
        }
      ],
      "name": "OwnershipTransferred",
      "type": "event"
    },
    {
      "anonymous": false,
      "inputs": [
        {
          "indexed": false,
          "internalType": "string",
          "name": "",
          "type": "string"
        }
      ],
      "name": "Print",
      "type": "event"
    },
    {
      "anonymous": false,
      "inputs": [
        {
          "indexed": false,
          "internalType": "address",
          "name": "",
          "type": "address"
        }
      ],
      "name": "User",
      "type": "event"
    },
    {
      "inputs": [
        {
          "internalType": "uint256",
          "name": "",
          "type": "uint256"
        }
      ],
      "name": "Allowed_tokens",
      "outputs": [
        {
          "internalType": "address",
          "name": "",
          "type": "address"
        }
      ],
      "stateMutability": "view",
      "type": "function"
    },
    {
      "inputs": [
        {
          "internalType": "address",
          "name": "",
          "type": "address"
        }
      ],
      "name": "Is_staking",
      "outputs": [
        {
          "internalType": "bool",
          "name": "",
          "type": "bool"
        }
      ],
      "stateMutability": "view",
      "type": "function"
    },
    {
      "inputs": [
        {
          "internalType": "address",
          "name": "",
          "type": "address"
        }
      ],
      "name": "PriceFeedAddress",
      "outputs": [
        {
          "internalType": "address",
          "name": "",
          "type": "address"
        }
      ],
      "stateMutability": "view",
      "type": "function"
    },
    {
      "inputs": [
        {
          "internalType": "uint256",
          "name": "",
          "type": "uint256"
        }
      ],
      "name": "Staking_list",
      "outputs": [
        {
          "internalType": "address",
          "name": "",
          "type": "address"
        }
      ],
      "stateMutability": "view",
      "type": "function"
    },
    {
      "inputs": [
        {
          "internalType": "address",
          "name": "",
          "type": "address"
        },
        {
          "internalType": "address",
          "name": "",
          "type": "address"
        }
      ],
      "name": "Stakingamount",
      "outputs": [
        {
          "internalType": "uint256",
          "name": "",
          "type": "uint256"
        }
      ],
      "stateMutability": "view",
      "type": "function"
    },
    {
      "inputs": [
        {
          "internalType": "address",
          "name": "_token",
          "type": "address"
        }
      ],
      "name": "_add_allowedtokens",
      "outputs": [],
      "stateMutability": "nonpayable",
      "type": "function"
    },
    {
      "inputs": [
        {
          "internalType": "address",
          "name": "_token",
          "type": "address"
        }
      ],
      "name": "_allowed_tokens",
      "outputs": [
        {
          "internalType": "bool",
          "name": "",
          "type": "bool"
        }
      ],
      "stateMutability": "nonpayable",
      "type": "function"
    },
    {
      "inputs": [],
      "name": "dapp_token",
      "outputs": [
        {
          "internalType": "contract IERC20",
          "name": "",
          "type": "address"
        }
      ],
      "stateMutability": "view",
      "type": "function"
    },
    {
      "inputs": [
        {
          "internalType": "address",
          "name": "_token",
          "type": "address"
        }
      ],
      "name": "get_token_price_feed",
      "outputs": [
        {
          "internalType": "uint256",
          "name": "",
          "type": "uint256"
        },
        {
          "internalType": "uint256",
          "name": "",
          "type": "uint256"
        }
      ],
      "stateMutability": "nonpayable",
      "type": "function"
    },
    {
      "inputs": [
        {
          "internalType": "address",
          "name": "_token",
          "type": "address"
        },
        {
          "internalType": "address",
          "name": "_account",
          "type": "address"
        }
      ],
      "name": "issue_tokens",
      "outputs": [
        {
          "internalType": "bool",
          "name": "",
          "type": "bool"
        }
      ],
      "stateMutability": "nonpayable",
      "type": "function"
    },
    {
      "inputs": [],
      "name": "newbalance",
      "outputs": [
        {
          "internalType": "string",
          "name": "",
          "type": "string"
        }
      ],
      "stateMutability": "view",
      "type": "function"
    },
    {
      "inputs": [],
      "name": "owner",
      "outputs": [
        {
          "internalType": "address",
          "name": "",
          "type": "address"
        }
      ],
      "stateMutability": "view",
      "type": "function"
    },
    {
      "inputs": [],
      "name": "renounceOwnership",
      "outputs": [],
      "stateMutability": "nonpayable",
      "type": "function"
    },
    {
      "inputs": [
        {
          "internalType": "address",
          "name": "_token",
          "type": "address"
        },
        {
          "internalType": "address",
          "name": "_pricefeed",
          "type": "address"
        }
      ],
      "name": "set_price_feedcontract",
      "outputs": [],
      "stateMutability": "nonpayable",
      "type": "function"
    },
    {
      "inputs": [
        {
          "internalType": "uint256",
          "name": "_amount",
          "type": "uint256"
        },
        {
          "internalType": "address",
          "name": "_token",
          "type": "address"
        }
      ],
      "name": "stake",
      "outputs": [],
      "stateMutability": "nonpayable",
      "type": "function"
    },
    {
      "inputs": [
        {
          "internalType": "address",
          "name": "_token",
          "type": "address"
        }
      ],
      "name": "token_balance",
      "outputs": [
        {
          "internalType": "string",
          "name": "",
          "type": "string"
        }
      ],
      "stateMutability": "view",
      "type": "function"
    },
    {
      "inputs": [
        {
          "internalType": "address",
          "name": "_user",
          "type": "address"
        },
        {
          "internalType": "address",
          "name": "_token",
          "type": "address"
        }
      ],
      "name": "token_price_converter",
      "outputs": [
        {
          "internalType": "uint256",
          "name": "",
          "type": "uint256"
        }
      ],
      "stateMutability": "nonpayable",
      "type": "function"
    },
    {
      "inputs": [
        {
          "internalType": "address",
          "name": "newOwner",
          "type": "address"
        }
      ],
      "name": "transferOwnership",
      "outputs": [],
      "stateMutability": "nonpayable",
      "type": "function"
    },
    {
      "inputs": [
        {
          "internalType": "address",
          "name": "_token",
          "type": "address"
        }
      ],
      "name": "unstake",
      "outputs": [],
      "stateMutability": "nonpayable",
      "type": "function"
    }
  ],
  "bytecode": "60c0604052600d60808190526c6869206e657762616c616e636560981b60a0908152620000309160079190620000c8565b503480156200003e57600080fd5b50604051620011ba380380620011ba83398101604081905262000061916200016e565b600080546001600160a01b031916339081178255604051909182917f8be0079c531659141344cd1fd0a4f28419497f9722a3daafe3b4186f6b6457e0908290a350600180546001600160a01b0319166001600160a01b0392909216919091179055620001dd565b828054620000d690620001a0565b90600052602060002090601f016020900481019282620000fa576000855562000145565b82601f106200011557805160ff191683800117855562000145565b8280016001018555821562000145579182015b828111156200014557825182559160200191906001019062000128565b506200015392915062000157565b5090565b5b8082111562000153576000815560010162000158565b6000602082840312156200018157600080fd5b81516001600160a01b03811681146200019957600080fd5b9392505050565b600181811c90821680620001b557607f821691505b60208210811415620001d757634e487b7160e01b600052602260045260246000fd5b50919050565b610fcd80620001ed6000396000f3fe608060405234801561001057600080fd5b50600436106101215760003560e01c8063820d2f78116100ad5780639dcf8f9d116100715780639dcf8f9d146102d2578063beb91123146102e5578063f2888dbb146102f8578063f2fde38b1461030b578063f4f6bd1f1461031e57600080fd5b8063820d2f781461025a578063850851e01461027d57806385bf7d7d1461029057806386ae5af8146102985780638da5cb5b146102c157600080fd5b806359a0beb3116100f457806359a0beb3146101de5780636013ce6e146101f3578063715018a61461022c5780637acb7757146102345780637efa7f671461024757600080fd5b8063105ae03a14610126578063122f16c7146101685780632dc396a0146101935780633f8cd229146101b6575b600080fd5b610152610134366004610c21565b5060408051808201909152600381526203130360ec1b602082015290565b60405161015f9190610d47565b60405180910390f35b61017b610176366004610c98565b610331565b6040516001600160a01b03909116815260200161015f565b6101a66101a1366004610c43565b61035b565b604051901515815260200161015f565b6101c96101c4366004610c21565b610488565b6040805192835260208301919091520161015f565b6101f16101ec366004610c21565b6105a6565b005b61021e610201366004610c43565b600260209081526000928352604080842090915290825290205481565b60405190815260200161015f565b6101f161062b565b6101f1610242366004610cb1565b61069f565b6101f1610255366004610c43565b6107d6565b6101a6610268366004610c21565b60036020526000908152604090205460ff1681565b60015461017b906001600160a01b031681565b61015261082e565b61017b6102a6366004610c21565b6004602052600090815260409020546001600160a01b031681565b6000546001600160a01b031661017b565b6101a66102e0366004610c21565b6108bc565b61021e6102f3366004610c43565b610926565b6101f1610306366004610c21565b610a13565b6101f1610319366004610c21565b610af1565b61017b61032c366004610c98565b610bdb565b6006818154811061034157600080fd5b6000918252602090912001546001600160a01b0316905081565b6000805b60055481101561047c5760006005828154811061037e5761037e610f81565b6000918252602090912001546001600160a01b0390811691508416811415610469576001600160a01b038086166000908152600260209081526040808320938516835292905290812054906103d38688610926565b60015460405163a9059cbb60e01b81526001600160a01b0386811660048301526024820184905292935091169063a9059cbb90604401602060405180830381600087803b15801561042357600080fd5b505af1158015610437573d6000803e3d6000fd5b505050506040513d601f19601f8201168201806040525081019061045b9190610c76565b506001945050505050610482565b508061047481610f50565b91505061035f565b50600090505b92915050565b6001600160a01b038082166000908152600460208190526040808320548151633fabe5a360e21b815291519394859491169283928592849263feaf968c928082019260a0929091829003018186803b1580156104e357600080fd5b505afa1580156104f7573d6000803e3d6000fd5b505050506040513d601f19601f8201168201806040525081019061051b9190610cd4565b5050509150506000826001600160a01b031663313ce5676040518163ffffffff1660e01b815260040160206040518083038186803b15801561055c57600080fd5b505afa158015610570573d6000803e3d6000fd5b505050506040513d601f19601f820116820180604052508101906105949190610d24565b919760ff909216965090945050505050565b6000546001600160a01b031633146105d95760405162461bcd60e51b81526004016105d090610d9c565b60405180910390fd5b600680546001810182556000919091527ff652222313e28459528d920b65115c16c04f3efc82aaedc97be59f3f377c0d3f0180546001600160a01b0319166001600160a01b0392909216919091179055565b6000546001600160a01b031633146106555760405162461bcd60e51b81526004016105d090610d9c565b600080546040516001600160a01b03909116907f8be0079c531659141344cd1fd0a4f28419497f9722a3daafe3b4186f6b6457e0908390a3600080546001600160a01b0319169055565b6040516323b872dd60e01b8152336004820152306024820152604481018390526001600160a01b038216906323b872dd90606401602060405180830381600087803b1580156106ed57600080fd5b505af1158015610701573d6000803e3d6000fd5b505050506040513d601f19601f820116820180604052508101906107259190610c76565b506001600160a01b0381166000908152600260209081526040808320338452909152902054610755908390610dd1565b6001600160a01b039091166000908152600260209081526040808320338085529083528184209490945560039091528120805460ff191660019081179091556005805491820181559091527f036b6384b5eca791c62761152d0c79bb0604c104a5fb6f4eb0703f3154bb3db00180546001600160a01b031916909117905550565b6000546001600160a01b031633146108005760405162461bcd60e51b81526004016105d090610d9c565b6001600160a01b03918216600090815260046020526040902080546001600160a01b03191691909216179055565b6007805461083b90610f15565b80601f016020809104026020016040519081016040528092919081815260200182805461086790610f15565b80156108b45780601f10610889576101008083540402835291602001916108b4565b820191906000526020600020905b81548152906001019060200180831161089757829003601f168201915b505050505081565b6000805b60065481101561091d57826001600160a01b0316600682815481106108e7576108e7610f81565b6000918252602090912001546001600160a01b0316141561090b5750600192915050565b8061091581610f50565b9150506108c0565b50600092915050565b600080600061093484610488565b9092509050600061094682600a610e4e565b6001600160a01b038087166000908152600260209081526040808320938b1683529290522054610977908590610ef6565b6109819190610de9565b90507f241ba3bafc919fb4308284ce03a8f4867a8ec2f0401445d3cf41a468e7db4ae06040516109cf906020808252600a90820152692932b9bab63a1696969f60b11b604082015260600190565b60405180910390a16040518181527fee0e21a0909c175792d67fa4e7c4f99d844405993e69b1ac9985af378f4cda4b9060200160405180910390a195945050505050565b3360009081526003602052604090205460ff161515600114610a3457600080fd5b6001600160a01b038116600081815260026020908152604080832033808552925280832080549390555163a9059cbb60e01b815260048101919091526024810182905290919063a9059cbb90604401602060405180830381600087803b158015610a9d57600080fd5b505af1158015610ab1573d6000803e3d6000fd5b505050506040513d601f19601f82011682018060405250810190610ad59190610c76565b5050336000908152600360205260409020805460ff1916905550565b6000546001600160a01b03163314610b1b5760405162461bcd60e51b81526004016105d090610d9c565b6001600160a01b038116610b805760405162461bcd60e51b815260206004820152602660248201527f4f776e61626c653a206e6577206f776e657220697320746865207a65726f206160448201526564647265737360d01b60648201526084016105d0565b600080546040516001600160a01b03808516939216917f8be0079c531659141344cd1fd0a4f28419497f9722a3daafe3b4186f6b6457e091a3600080546001600160a01b0319166001600160a01b0392909216919091179055565b6005818154811061034157600080fd5b80356001600160a01b0381168114610c0257600080fd5b919050565b805169ffffffffffffffffffff81168114610c0257600080fd5b600060208284031215610c3357600080fd5b610c3c82610beb565b9392505050565b60008060408385031215610c5657600080fd5b610c5f83610beb565b9150610c6d60208401610beb565b90509250929050565b600060208284031215610c8857600080fd5b81518015158114610c3c57600080fd5b600060208284031215610caa57600080fd5b5035919050565b60008060408385031215610cc457600080fd5b82359150610c6d60208401610beb565b600080600080600060a08688031215610cec57600080fd5b610cf586610c07565b9450602086015193506040860151925060608601519150610d1860808701610c07565b90509295509295909350565b600060208284031215610d3657600080fd5b815160ff81168114610c3c57600080fd5b600060208083528351808285015260005b81811015610d7457858101830151858201604001528201610d58565b81811115610d86576000604083870101525b50601f01601f1916929092016040019392505050565b6020808252818101527f4f776e61626c653a2063616c6c6572206973206e6f7420746865206f776e6572604082015260600190565b60008219821115610de457610de4610f6b565b500190565b600082610e0657634e487b7160e01b600052601260045260246000fd5b500490565b600181815b80851115610e46578160001904821115610e2c57610e2c610f6b565b80851615610e3957918102915b93841c9390800290610e10565b509250929050565b6000610c3c8383600082610e6457506001610482565b81610e7157506000610482565b8160018114610e875760028114610e9157610ead565b6001915050610482565b60ff841115610ea257610ea2610f6b565b50506001821b610482565b5060208310610133831016604e8410600b8410161715610ed0575081810a610482565b610eda8383610e0b565b8060001904821115610eee57610eee610f6b565b029392505050565b6000816000190483118215151615610f1057610f10610f6b565b500290565b600181811c90821680610f2957607f821691505b60208210811415610f4a57634e487b7160e01b600052602260045260246000fd5b50919050565b6000600019821415610f6457610f64610f6b565b5060010190565b634e487b7160e01b600052601160045260246000fd5b634e487b7160e01b600052603260045260246000fdfea264697066735822122035cf61276ee0f47134ea3ad44d3698a7c5f1bdd8f6e5235ac0a62b0a78b2b7d864736f6c63430008070033",
  "bytecodeSha1": "77b7fe91b81422743921b7bbff11eadb9e494c5f",
  "compiler": {
    "evm_version": "istanbul",
    "optimizer": {
      "enabled": true,
      "runs": 200
    },
    "version": "0.8.7+commit.e28d00a7"
  },
  "contractName": "Farm_token",
  "language": "Solidity",
  "natspec": {
    "kind": "dev",
    "methods": {
      "owner()": {
        "details": "Returns the address of the current owner."
      },
      "renounceOwnership()": {
        "details": "Leaves the contract without owner. It will not be possible to call `onlyOwner` functions anymore. Can only be called by the current owner. NOTE: Renouncing ownership will leave the contract without an owner, thereby removing any functionality that is only available to the owner."
      },
      "transferOwnership(address)": {
        "details": "Transfers ownership of the contract to a new account (`newOwner`). Can only be called by the current owner."
      }
    },
    "version": 1
  },
  "opcodes": "PUSH1 0x80 PUSH1 0x40 MSTORE CALLVALUE DUP1 ISZERO PUSH2 0x10 JUMPI PUSH1 0x0 DUP1 REVERT JUMPDEST POP PUSH1 0x4 CALLDATASIZE LT PUSH2 0x121 JUMPI PUSH1 0x0 CALLDATALOAD PUSH1 0xE0 SHR DUP1 PUSH4 0x820D2F78 GT PUSH2 0xAD JUMPI DUP1 PUSH4 0x9DCF8F9D GT PUSH2 0x71 JUMPI DUP1 PUSH4 0x9DCF8F9D EQ PUSH2 0x2D2 JUMPI DUP1 PUSH4 0xBEB91123 EQ PUSH2 0x2E5 JUMPI DUP1 PUSH4 0xF2888DBB EQ PUSH2 0x2F8 JUMPI DUP1 PUSH4 0xF2FDE38B EQ PUSH2 0x30B JUMPI DUP1 PUSH4 0xF4F6BD1F EQ PUSH2 0x31E JUMPI PUSH1 0x0 DUP1 REVERT JUMPDEST DUP1 PUSH4 0x820D2F78 EQ PUSH2 0x25A JUMPI DUP1 PUSH4 0x850851E0 EQ PUSH2 0x27D JUMPI DUP1 PUSH4 0x85BF7D7D EQ PUSH2 0x290 JUMPI DUP1 PUSH4 0x86AE5AF8 EQ PUSH2 0x298 JUMPI DUP1 PUSH4 0x8DA5CB5B EQ PUSH2 0x2C1 JUMPI PUSH1 0x0 DUP1 REVERT JUMPDEST DUP1 PUSH4 0x59A0BEB3 GT PUSH2 0xF4 JUMPI DUP1 PUSH4 0x59A0BEB3 EQ PUSH2 0x1DE JUMPI DUP1 PUSH4 0x6013CE6E EQ PUSH2 0x1F3 JUMPI DUP1 PUSH4 0x715018A6 EQ PUSH2 0x22C JUMPI DUP1 PUSH4 0x7ACB7757 EQ PUSH2 0x234 JUMPI DUP1 PUSH4 0x7EFA7F67 EQ PUSH2 0x247 JUMPI PUSH1 0x0 DUP1 REVERT JUMPDEST DUP1 PUSH4 0x105AE03A EQ PUSH2 0x126 JUMPI DUP1 PUSH4 0x122F16C7 EQ PUSH2 0x168 JUMPI DUP1 PUSH4 0x2DC396A0 EQ PUSH2 0x193 JUMPI DUP1 PUSH4 0x3F8CD229 EQ PUSH2 0x1B6 JUMPI JUMPDEST PUSH1 0x0 DUP1 REVERT JUMPDEST PUSH2 0x152 PUSH2 0x134 CALLDATASIZE PUSH1 0x4 PUSH2 0xC21 JUMP JUMPDEST POP PUSH1 0x40 DUP1 MLOAD DUP1 DUP3 ADD SWAP1 SWAP2 MSTORE PUSH1 0x3 DUP2 MSTORE PUSH3 0x31303 PUSH1 0xEC SHL PUSH1 0x20 DUP3 ADD MSTORE SWAP1 JUMP JUMPDEST PUSH1 0x40 MLOAD PUSH2 0x15F SWAP2 SWAP1 PUSH2 0xD47 JUMP JUMPDEST PUSH1 0x40 MLOAD DUP1 SWAP2 SUB SWAP1 RETURN JUMPDEST PUSH2 0x17B PUSH2 0x176 CALLDATASIZE PUSH1 0x4 PUSH2 0xC98 JUMP JUMPDEST PUSH2 0x331 JUMP JUMPDEST PUSH1 0x40 MLOAD PUSH1 0x1 PUSH1 0x1 PUSH1 0xA0 SHL SUB SWAP1 SWAP2 AND DUP2 MSTORE PUSH1 0x20 ADD PUSH2 0x15F JUMP JUMPDEST PUSH2 0x1A6 PUSH2 0x1A1 CALLDATASIZE PUSH1 0x4 PUSH2 0xC43 JUMP JUMPDEST PUSH2 0x35B JUMP JUMPDEST PUSH1 0x40 MLOAD SWAP1 ISZERO ISZERO DUP2 MSTORE PUSH1 0x20 ADD PUSH2 0x15F JUMP JUMPDEST PUSH2 0x1C9 PUSH2 0x1C4 CALLDATASIZE PUSH1 0x4 PUSH2 0xC21 JUMP JUMPDEST PUSH2 0x488 JUMP JUMPDEST PUSH1 0x40 DUP1 MLOAD SWAP3 DUP4 MSTORE PUSH1 0x20 DUP4 ADD SWAP2 SWAP1 SWAP2 MSTORE ADD PUSH2 0x15F JUMP JUMPDEST PUSH2 0x1F1 PUSH2 0x1EC CALLDATASIZE PUSH1 0x4 PUSH2 0xC21 JUMP JUMPDEST PUSH2 0x5A6 JUMP JUMPDEST STOP JUMPDEST PUSH2 0x21E PUSH2 0x201 CALLDATASIZE PUSH1 0x4 PUSH2 0xC43 JUMP JUMPDEST PUSH1 0x2 PUSH1 0x20 SWAP1 DUP2 MSTORE PUSH1 0x0 SWAP3 DUP4 MSTORE PUSH1 0x40 DUP1 DUP5 KECCAK256 SWAP1 SWAP2 MSTORE SWAP1 DUP3 MSTORE SWAP1 KECCAK256 SLOAD DUP2 JUMP JUMPDEST PUSH1 0x40 MLOAD SWAP1 DUP2 MSTORE PUSH1 0x20 ADD PUSH2 0x15F JUMP JUMPDEST PUSH2 0x1F1 PUSH2 0x62B JUMP JUMPDEST PUSH2 0x1F1 PUSH2 0x242 CALLDATASIZE PUSH1 0x4 PUSH2 0xCB1 JUMP JUMPDEST PUSH2 0x69F JUMP JUMPDEST PUSH2 0x1F1 PUSH2 0x255 CALLDATASIZE PUSH1 0x4 PUSH2 0xC43 JUMP JUMPDEST PUSH2 0x7D6 JUMP JUMPDEST PUSH2 0x1A6 PUSH2 0x268 CALLDATASIZE PUSH1 0x4 PUSH2 0xC21 JUMP JUMPDEST PUSH1 0x3 PUSH1 0x20 MSTORE PUSH1 0x0 SWAP1 DUP2 MSTORE PUSH1 0x40 SWAP1 KECCAK256 SLOAD PUSH1 0xFF AND DUP2 JUMP JUMPDEST PUSH1 0x1 SLOAD PUSH2 0x17B SWAP1 PUSH1 0x1 PUSH1 0x1 PUSH1 0xA0 SHL SUB AND DUP2 JUMP JUMPDEST PUSH2 0x152 PUSH2 0x82E JUMP JUMPDEST PUSH2 0x17B PUSH2 0x2A6 CALLDATASIZE PUSH1 0x4 PUSH2 0xC21 JUMP JUMPDEST PUSH1 0x4 PUSH1 0x20 MSTORE PUSH1 0x0 SWAP1 DUP2 MSTORE PUSH1 0x40 SWAP1 KECCAK256 SLOAD PUSH1 0x1 PUSH1 0x1 PUSH1 0xA0 SHL SUB AND DUP2 JUMP JUMPDEST PUSH1 0x0 SLOAD PUSH1 0x1 PUSH1 0x1 PUSH1 0xA0 SHL SUB AND PUSH2 0x17B JUMP JUMPDEST PUSH2 0x1A6 PUSH2 0x2E0 CALLDATASIZE PUSH1 0x4 PUSH2 0xC21 JUMP JUMPDEST PUSH2 0x8BC JUMP JUMPDEST PUSH2 0x21E PUSH2 0x2F3 CALLDATASIZE PUSH1 0x4 PUSH2 0xC43 JUMP JUMPDEST PUSH2 0x926 JUMP JUMPDEST PUSH2 0x1F1 PUSH2 0x306 CALLDATASIZE PUSH1 0x4 PUSH2 0xC21 JUMP JUMPDEST PUSH2 0xA13 JUMP JUMPDEST PUSH2 0x1F1 PUSH2 0x319 CALLDATASIZE PUSH1 0x4 PUSH2 0xC21 JUMP JUMPDEST PUSH2 0xAF1 JUMP JUMPDEST PUSH2 0x17B PUSH2 0x32C CALLDATASIZE PUSH1 0x4 PUSH2 0xC98 JUMP JUMPDEST PUSH2 0xBDB JUMP JUMPDEST PUSH1 0x6 DUP2 DUP2 SLOAD DUP2 LT PUSH2 0x341 JUMPI PUSH1 0x0 DUP1 REVERT JUMPDEST PUSH1 0x0 SWAP2 DUP3 MSTORE PUSH1 0x20 SWAP1 SWAP2 KECCAK256 ADD SLOAD PUSH1 0x1 PUSH1 0x1 PUSH1 0xA0 SHL SUB AND SWAP1 POP DUP2 JUMP JUMPDEST PUSH1 0x0 DUP1 JUMPDEST PUSH1 0x5 SLOAD DUP2 LT ISZERO PUSH2 0x47C JUMPI PUSH1 0x0 PUSH1 0x5 DUP3 DUP2 SLOAD DUP2 LT PUSH2 0x37E JUMPI PUSH2 0x37E PUSH2 0xF81 JUMP JUMPDEST PUSH1 0x0 SWAP2 DUP3 MSTORE PUSH1 0x20 SWAP1 SWAP2 KECCAK256 ADD SLOAD PUSH1 0x1 PUSH1 0x1 PUSH1 0xA0 SHL SUB SWAP1 DUP2 AND SWAP2 POP DUP5 AND DUP2 EQ ISZERO PUSH2 0x469 JUMPI PUSH1 0x1 PUSH1 0x1 PUSH1 0xA0 SHL SUB DUP1 DUP7 AND PUSH1 0x0 SWAP1 DUP2 MSTORE PUSH1 0x2 PUSH1 0x20 SWAP1 DUP2 MSTORE PUSH1 0x40 DUP1 DUP4 KECCAK256 SWAP4 DUP6 AND DUP4 MSTORE SWAP3 SWAP1 MSTORE SWAP1 DUP2 KECCAK256 SLOAD SWAP1 PUSH2 0x3D3 DUP7 DUP9 PUSH2 0x926 JUMP JUMPDEST PUSH1 0x1 SLOAD PUSH1 0x40 MLOAD PUSH4 0xA9059CBB PUSH1 0xE0 SHL DUP2 MSTORE PUSH1 0x1 PUSH1 0x1 PUSH1 0xA0 SHL SUB DUP7 DUP2 AND PUSH1 0x4 DUP4 ADD MSTORE PUSH1 0x24 DUP3 ADD DUP5 SWAP1 MSTORE SWAP3 SWAP4 POP SWAP2 AND SWAP1 PUSH4 0xA9059CBB SWAP1 PUSH1 0x44 ADD PUSH1 0x20 PUSH1 0x40 MLOAD DUP1 DUP4 SUB DUP2 PUSH1 0x0 DUP8 DUP1 EXTCODESIZE ISZERO DUP1 ISZERO PUSH2 0x423 JUMPI PUSH1 0x0 DUP1 REVERT JUMPDEST POP GAS CALL ISZERO DUP1 ISZERO PUSH2 0x437 JUMPI RETURNDATASIZE PUSH1 0x0 DUP1 RETURNDATACOPY RETURNDATASIZE PUSH1 0x0 REVERT JUMPDEST POP POP POP POP PUSH1 0x40 MLOAD RETURNDATASIZE PUSH1 0x1F NOT PUSH1 0x1F DUP3 ADD AND DUP3 ADD DUP1 PUSH1 0x40 MSTORE POP DUP2 ADD SWAP1 PUSH2 0x45B SWAP2 SWAP1 PUSH2 0xC76 JUMP JUMPDEST POP PUSH1 0x1 SWAP5 POP POP POP POP POP PUSH2 0x482 JUMP JUMPDEST POP DUP1 PUSH2 0x474 DUP2 PUSH2 0xF50 JUMP JUMPDEST SWAP2 POP POP PUSH2 0x35F JUMP JUMPDEST POP PUSH1 0x0 SWAP1 POP JUMPDEST SWAP3 SWAP2 POP POP JUMP JUMPDEST PUSH1 0x1 PUSH1 0x1 PUSH1 0xA0 SHL SUB DUP1 DUP3 AND PUSH1 0x0 SWAP1 DUP2 MSTORE PUSH1 0x4 PUSH1 0x20 DUP2 SWAP1 MSTORE PUSH1 0x40 DUP1 DUP4 KECCAK256 SLOAD DUP2 MLOAD PUSH4 0x3FABE5A3 PUSH1 0xE2 SHL DUP2 MSTORE SWAP2 MLOAD SWAP4 SWAP5 DUP6 SWAP5 SWAP2 AND SWAP3 DUP4 SWAP3 DUP6 SWAP3 DUP5 SWAP3 PUSH4 0xFEAF968C SWAP3 DUP1 DUP3 ADD SWAP3 PUSH1 0xA0 SWAP3 SWAP1 SWAP2 DUP3 SWAP1 SUB ADD DUP2 DUP7 DUP1 EXTCODESIZE ISZERO DUP1 ISZERO PUSH2 0x4E3 JUMPI PUSH1 0x0 DUP1 REVERT JUMPDEST POP GAS STATICCALL ISZERO DUP1 ISZERO PUSH2 0x4F7 JUMPI RETURNDATASIZE PUSH1 0x0 DUP1 RETURNDATACOPY RETURNDATASIZE PUSH1 0x0 REVERT JUMPDEST POP POP POP POP PUSH1 0x40 MLOAD RETURNDATASIZE PUSH1 0x1F NOT PUSH1 0x1F DUP3 ADD AND DUP3 ADD DUP1 PUSH1 0x40 MSTORE POP DUP2 ADD SWAP1 PUSH2 0x51B SWAP2 SWAP1 PUSH2 0xCD4 JUMP JUMPDEST POP POP POP SWAP2 POP POP PUSH1 0x0 DUP3 PUSH1 0x1 PUSH1 0x1 PUSH1 0xA0 SHL SUB AND PUSH4 0x313CE567 PUSH1 0x40 MLOAD DUP2 PUSH4 0xFFFFFFFF AND PUSH1 0xE0 SHL DUP2 MSTORE PUSH1 0x4 ADD PUSH1 0x20 PUSH1 0x40 MLOAD DUP1 DUP4 SUB DUP2 DUP7 DUP1 EXTCODESIZE ISZERO DUP1 ISZERO PUSH2 0x55C JUMPI PUSH1 0x0 DUP1 REVERT JUMPDEST POP GAS STATICCALL ISZERO DUP1 ISZERO PUSH2 0x570 JUMPI RETURNDATASIZE PUSH1 0x0 DUP1 RETURNDATACOPY RETURNDATASIZE PUSH1 0x0 REVERT JUMPDEST POP POP POP POP PUSH1 0x40 MLOAD RETURNDATASIZE PUSH1 0x1F NOT PUSH1 0x1F DUP3 ADD AND DUP3 ADD DUP1 PUSH1 0x40 MSTORE POP DUP2 ADD SWAP1 PUSH2 0x594 SWAP2 SWAP1 PUSH2 0xD24 JUMP JUMPDEST SWAP2 SWAP8 PUSH1 0xFF SWAP1 SWAP3 AND SWAP7 POP SWAP1 SWAP5 POP POP POP POP POP JUMP JUMPDEST PUSH1 0x0 SLOAD PUSH1 0x1 PUSH1 0x1 PUSH1 0xA0 SHL SUB AND CALLER EQ PUSH2 0x5D9 JUMPI PUSH1 0x40 MLOAD PUSH3 0x461BCD PUSH1 0xE5 SHL DUP2 MSTORE PUSH1 0x4 ADD PUSH2 0x5D0 SWAP1 PUSH2 0xD9C JUMP JUMPDEST PUSH1 0x40 MLOAD DUP1 SWAP2 SUB SWAP1 REVERT JUMPDEST PUSH1 0x6 DUP1 SLOAD PUSH1 0x1 DUP2 ADD DUP3 SSTORE PUSH1 0x0 SWAP2 SWAP1 SWAP2 MSTORE PUSH32 0xF652222313E28459528D920B65115C16C04F3EFC82AAEDC97BE59F3F377C0D3F ADD DUP1 SLOAD PUSH1 0x1 PUSH1 0x1 PUSH1 0xA0 SHL SUB NOT AND PUSH1 0x1 PUSH1 0x1 PUSH1 0xA0 SHL SUB SWAP3 SWAP1 SWAP3 AND SWAP2 SWAP1 SWAP2 OR SWAP1 SSTORE JUMP JUMPDEST PUSH1 0x0 SLOAD PUSH1 0x1 PUSH1 0x1 PUSH1 0xA0 SHL SUB AND CALLER EQ PUSH2 0x655 JUMPI PUSH1 0x40 MLOAD PUSH3 0x461BCD PUSH1 0xE5 SHL DUP2 MSTORE PUSH1 0x4 ADD PUSH2 0x5D0 SWAP1 PUSH2 0xD9C JUMP JUMPDEST PUSH1 0x0 DUP1 SLOAD PUSH1 0x40 MLOAD PUSH1 0x1 PUSH1 0x1 PUSH1 0xA0 SHL SUB SWAP1 SWAP2 AND SWAP1 PUSH32 0x8BE0079C531659141344CD1FD0A4F28419497F9722A3DAAFE3B4186F6B6457E0 SWAP1 DUP4 SWAP1 LOG3 PUSH1 0x0 DUP1 SLOAD PUSH1 0x1 PUSH1 0x1 PUSH1 0xA0 SHL SUB NOT AND SWAP1 SSTORE JUMP JUMPDEST PUSH1 0x40 MLOAD PUSH4 0x23B872DD PUSH1 0xE0 SHL DUP2 MSTORE CALLER PUSH1 0x4 DUP3 ADD MSTORE ADDRESS PUSH1 0x24 DUP3 ADD MSTORE PUSH1 0x44 DUP2 ADD DUP4 SWAP1 MSTORE PUSH1 0x1 PUSH1 0x1 PUSH1 0xA0 SHL SUB DUP3 AND SWAP1 PUSH4 0x23B872DD SWAP1 PUSH1 0x64 ADD PUSH1 0x20 PUSH1 0x40 MLOAD DUP1 DUP4 SUB DUP2 PUSH1 0x0 DUP8 DUP1 EXTCODESIZE ISZERO DUP1 ISZERO PUSH2 0x6ED JUMPI PUSH1 0x0 DUP1 REVERT JUMPDEST POP GAS CALL ISZERO DUP1 ISZERO PUSH2 0x701 JUMPI RETURNDATASIZE PUSH1 0x0 DUP1 RETURNDATACOPY RETURNDATASIZE PUSH1 0x0 REVERT JUMPDEST POP POP POP POP PUSH1 0x40 MLOAD RETURNDATASIZE PUSH1 0x1F NOT PUSH1 0x1F DUP3 ADD AND DUP3 ADD DUP1 PUSH1 0x40 MSTORE POP DUP2 ADD SWAP1 PUSH2 0x725 SWAP2 SWAP1 PUSH2 0xC76 JUMP JUMPDEST POP PUSH1 0x1 PUSH1 0x1 PUSH1 0xA0 SHL SUB DUP2 AND PUSH1 0x0 SWAP1 DUP2 MSTORE PUSH1 0x2 PUSH1 0x20 SWAP1 DUP2 MSTORE PUSH1 0x40 DUP1 DUP4 KECCAK256 CALLER DUP5 MSTORE SWAP1 SWAP2 MSTORE SWAP1 KECCAK256 SLOAD PUSH2 0x755 SWAP1 DUP4 SWAP1 PUSH2 0xDD1 JUMP JUMPDEST PUSH1 0x1 PUSH1 0x1 PUSH1 0xA0 SHL SUB SWAP1 SWAP2 AND PUSH1 0x0 SWAP1 DUP2 MSTORE PUSH1 0x2 PUSH1 0x20 SWAP1 DUP2 MSTORE PUSH1 0x40 DUP1 DUP4 KECCAK256 CALLER DUP1 DUP6 MSTORE SWAP1 DUP4 MSTORE DUP2 DUP5 KECCAK256 SWAP5 SWAP1 SWAP5 SSTORE PUSH1 0x3 SWAP1 SWAP2 MSTORE DUP2 KECCAK256 DUP1 SLOAD PUSH1 0xFF NOT AND PUSH1 0x1 SWAP1 DUP2 OR SWAP1 SWAP2 SSTORE PUSH1 0x5 DUP1 SLOAD SWAP2 DUP3 ADD DUP2 SSTORE SWAP1 SWAP2 MSTORE PUSH32 0x36B6384B5ECA791C62761152D0C79BB0604C104A5FB6F4EB0703F3154BB3DB0 ADD DUP1 SLOAD PUSH1 0x1 PUSH1 0x1 PUSH1 0xA0 SHL SUB NOT AND SWAP1 SWAP2 OR SWAP1 SSTORE POP JUMP JUMPDEST PUSH1 0x0 SLOAD PUSH1 0x1 PUSH1 0x1 PUSH1 0xA0 SHL SUB AND CALLER EQ PUSH2 0x800 JUMPI PUSH1 0x40 MLOAD PUSH3 0x461BCD PUSH1 0xE5 SHL DUP2 MSTORE PUSH1 0x4 ADD PUSH2 0x5D0 SWAP1 PUSH2 0xD9C JUMP JUMPDEST PUSH1 0x1 PUSH1 0x1 PUSH1 0xA0 SHL SUB SWAP2 DUP3 AND PUSH1 0x0 SWAP1 DUP2 MSTORE PUSH1 0x4 PUSH1 0x20 MSTORE PUSH1 0x40 SWAP1 KECCAK256 DUP1 SLOAD PUSH1 0x1 PUSH1 0x1 PUSH1 0xA0 SHL SUB NOT AND SWAP2 SWAP1 SWAP3 AND OR SWAP1 SSTORE JUMP JUMPDEST PUSH1 0x7 DUP1 SLOAD PUSH2 0x83B SWAP1 PUSH2 0xF15 JUMP JUMPDEST DUP1 PUSH1 0x1F ADD PUSH1 0x20 DUP1 SWAP2 DIV MUL PUSH1 0x20 ADD PUSH1 0x40 MLOAD SWAP1 DUP2 ADD PUSH1 0x40 MSTORE DUP1 SWAP3 SWAP2 SWAP1 DUP2 DUP2 MSTORE PUSH1 0x20 ADD DUP3 DUP1 SLOAD PUSH2 0x867 SWAP1 PUSH2 0xF15 JUMP JUMPDEST DUP1 ISZERO PUSH2 0x8B4 JUMPI DUP1 PUSH1 0x1F LT PUSH2 0x889 JUMPI PUSH2 0x100 DUP1 DUP4 SLOAD DIV MUL DUP4 MSTORE SWAP2 PUSH1 0x20 ADD SWAP2 PUSH2 0x8B4 JUMP JUMPDEST DUP3 ADD SWAP2 SWAP1 PUSH1 0x0 MSTORE PUSH1 0x20 PUSH1 0x0 KECCAK256 SWAP1 JUMPDEST DUP2 SLOAD DUP2 MSTORE SWAP1 PUSH1 0x1 ADD SWAP1 PUSH1 0x20 ADD DUP1 DUP4 GT PUSH2 0x897 JUMPI DUP3 SWAP1 SUB PUSH1 0x1F AND DUP3 ADD SWAP2 JUMPDEST POP POP POP POP POP DUP2 JUMP JUMPDEST PUSH1 0x0 DUP1 JUMPDEST PUSH1 0x6 SLOAD DUP2 LT ISZERO PUSH2 0x91D JUMPI DUP3 PUSH1 0x1 PUSH1 0x1 PUSH1 0xA0 SHL SUB AND PUSH1 0x6 DUP3 DUP2 SLOAD DUP2 LT PUSH2 0x8E7 JUMPI PUSH2 0x8E7 PUSH2 0xF81 JUMP JUMPDEST PUSH1 0x0 SWAP2 DUP3 MSTORE PUSH1 0x20 SWAP1 SWAP2 KECCAK256 ADD SLOAD PUSH1 0x1 PUSH1 0x1 PUSH1 0xA0 SHL SUB AND EQ ISZERO PUSH2 0x90B JUMPI POP PUSH1 0x1 SWAP3 SWAP2 POP POP JUMP JUMPDEST DUP1 PUSH2 0x915 DUP2 PUSH2 0xF50 JUMP JUMPDEST SWAP2 POP POP PUSH2 0x8C0 JUMP JUMPDEST POP PUSH1 0x0 SWAP3 SWAP2 POP POP JUMP JUMPDEST PUSH1 0x0 DUP1 PUSH1 0x0 PUSH2 0x934 DUP5 PUSH2 0x488 JUMP JUMPDEST SWAP1 SWAP3 POP SWAP1 POP PUSH1 0x0 PUSH2 0x946 DUP3 PUSH1 0xA PUSH2 0xE4E JUMP JUMPDEST PUSH1 0x1 PUSH1 0x1 PUSH1 0xA0 SHL SUB DUP1 DUP8 AND PUSH1 0x0 SWAP1 DUP2 MSTORE PUSH1 0x2 PUSH1 0x20 SWAP1 DUP2 MSTORE PUSH1 0x40 DUP1 DUP4 KECCAK256 SWAP4 DUP12 AND DUP4 MSTORE SWAP3 SWAP1 MSTORE KECCAK256 SLOAD PUSH2 0x977 SWAP1 DUP6 SWAP1 PUSH2 0xEF6 JUMP JUMPDEST PUSH2 0x981 SWAP2 SWAP1 PUSH2 0xDE9 JUMP JUMPDEST SWAP1 POP PUSH32 0x241BA3BAFC919FB4308284CE03A8F4867A8EC2F0401445D3CF41A468E7DB4AE0 PUSH1 0x40 MLOAD PUSH2 0x9CF SWAP1 PUSH1 0x20 DUP1 DUP3 MSTORE PUSH1 0xA SWAP1 DUP3 ADD MSTORE PUSH10 0x2932B9BAB63A1696969F PUSH1 0xB1 SHL PUSH1 0x40 DUP3 ADD MSTORE PUSH1 0x60 ADD SWAP1 JUMP JUMPDEST PUSH1 0x40 MLOAD DUP1 SWAP2 SUB SWAP1 LOG1 PUSH1 0x40 MLOAD DUP2 DUP2 MSTORE PUSH32 0xEE0E21A0909C175792D67FA4E7C4F99D844405993E69B1AC9985AF378F4CDA4B SWAP1 PUSH1 0x20 ADD PUSH1 0x40 MLOAD DUP1 SWAP2 SUB SWAP1 LOG1 SWAP6 SWAP5 POP POP POP POP POP JUMP JUMPDEST CALLER PUSH1 0x0 SWAP1 DUP2 MSTORE PUSH1 0x3 PUSH1 0x20 MSTORE PUSH1 0x40 SWAP1 KECCAK256 SLOAD PUSH1 0xFF AND ISZERO ISZERO PUSH1 0x1 EQ PUSH2 0xA34 JUMPI PUSH1 0x0 DUP1 REVERT JUMPDEST PUSH1 0x1 PUSH1 0x1 PUSH1 0xA0 SHL SUB DUP2 AND PUSH1 0x0 DUP2 DUP2 MSTORE PUSH1 0x2 PUSH1 0x20 SWAP1 DUP2 MSTORE PUSH1 0x40 DUP1 DUP4 KECCAK256 CALLER DUP1 DUP6 MSTORE SWAP3 MSTORE DUP1 DUP4 KECCAK256 DUP1 SLOAD SWAP4 SWAP1 SSTORE MLOAD PUSH4 0xA9059CBB PUSH1 0xE0 SHL DUP2 MSTORE PUSH1 0x4 DUP2 ADD SWAP2 SWAP1 SWAP2 MSTORE PUSH1 0x24 DUP2 ADD DUP3 SWAP1 MSTORE SWAP1 SWAP2 SWAP1 PUSH4 0xA9059CBB SWAP1 PUSH1 0x44 ADD PUSH1 0x20 PUSH1 0x40 MLOAD DUP1 DUP4 SUB DUP2 PUSH1 0x0 DUP8 DUP1 EXTCODESIZE ISZERO DUP1 ISZERO PUSH2 0xA9D JUMPI PUSH1 0x0 DUP1 REVERT JUMPDEST POP GAS CALL ISZERO DUP1 ISZERO PUSH2 0xAB1 JUMPI RETURNDATASIZE PUSH1 0x0 DUP1 RETURNDATACOPY RETURNDATASIZE PUSH1 0x0 REVERT JUMPDEST POP POP POP POP PUSH1 0x40 MLOAD RETURNDATASIZE PUSH1 0x1F NOT PUSH1 0x1F DUP3 ADD AND DUP3 ADD DUP1 PUSH1 0x40 MSTORE POP DUP2 ADD SWAP1 PUSH2 0xAD5 SWAP2 SWAP1 PUSH2 0xC76 JUMP JUMPDEST POP POP CALLER PUSH1 0x0 SWAP1 DUP2 MSTORE PUSH1 0x3 PUSH1 0x20 MSTORE PUSH1 0x40 SWAP1 KECCAK256 DUP1 SLOAD PUSH1 0xFF NOT AND SWAP1 SSTORE POP JUMP JUMPDEST PUSH1 0x0 SLOAD PUSH1 0x1 PUSH1 0x1 PUSH1 0xA0 SHL SUB AND CALLER EQ PUSH2 0xB1B JUMPI PUSH1 0x40 MLOAD PUSH3 0x461BCD PUSH1 0xE5 SHL DUP2 MSTORE PUSH1 0x4 ADD PUSH2 0x5D0 SWAP1 PUSH2 0xD9C JUMP JUMPDEST PUSH1 0x1 PUSH1 0x1 PUSH1 0xA0 SHL SUB DUP2 AND PUSH2 0xB80 JUMPI PUSH1 0x40 MLOAD PUSH3 0x461BCD PUSH1 0xE5 SHL DUP2 MSTORE PUSH1 0x20 PUSH1 0x4 DUP3 ADD MSTORE PUSH1 0x26 PUSH1 0x24 DUP3 ADD MSTORE PUSH32 0x4F776E61626C653A206E6577206F776E657220697320746865207A65726F2061 PUSH1 0x44 DUP3 ADD MSTORE PUSH6 0x646472657373 PUSH1 0xD0 SHL PUSH1 0x64 DUP3 ADD MSTORE PUSH1 0x84 ADD PUSH2 0x5D0 JUMP JUMPDEST PUSH1 0x0 DUP1 SLOAD PUSH1 0x40 MLOAD PUSH1 0x1 PUSH1 0x1 PUSH1 0xA0 SHL SUB DUP1 DUP6 AND SWAP4 SWAP3 AND SWAP2 PUSH32 0x8BE0079C531659141344CD1FD0A4F28419497F9722A3DAAFE3B4186F6B6457E0 SWAP2 LOG3 PUSH1 0x0 DUP1 SLOAD PUSH1 0x1 PUSH1 0x1 PUSH1 0xA0 SHL SUB NOT AND PUSH1 0x1 PUSH1 0x1 PUSH1 0xA0 SHL SUB SWAP3 SWAP1 SWAP3 AND SWAP2 SWAP1 SWAP2 OR SWAP1 SSTORE JUMP JUMPDEST PUSH1 0x5 DUP2 DUP2 SLOAD DUP2 LT PUSH2 0x341 JUMPI PUSH1 0x0 DUP1 REVERT JUMPDEST DUP1 CALLDATALOAD PUSH1 0x1 PUSH1 0x1 PUSH1 0xA0 SHL SUB DUP2 AND DUP2 EQ PUSH2 0xC02 JUMPI PUSH1 0x0 DUP1 REVERT JUMPDEST SWAP2 SWAP1 POP JUMP JUMPDEST DUP1 MLOAD PUSH10 0xFFFFFFFFFFFFFFFFFFFF DUP2 AND DUP2 EQ PUSH2 0xC02 JUMPI PUSH1 0x0 DUP1 REVERT JUMPDEST PUSH1 0x0 PUSH1 0x20 DUP3 DUP5 SUB SLT ISZERO PUSH2 0xC33 JUMPI PUSH1 0x0 DUP1 REVERT JUMPDEST PUSH2 0xC3C DUP3 PUSH2 0xBEB JUMP JUMPDEST SWAP4 SWAP3 POP POP POP JUMP JUMPDEST PUSH1 0x0 DUP1 PUSH1 0x40 DUP4 DUP6 SUB SLT ISZERO PUSH2 0xC56 JUMPI PUSH1 0x0 DUP1 REVERT JUMPDEST PUSH2 0xC5F DUP4 PUSH2 0xBEB JUMP JUMPDEST SWAP2 POP PUSH2 0xC6D PUSH1 0x20 DUP5 ADD PUSH2 0xBEB JUMP JUMPDEST SWAP1 POP SWAP3 POP SWAP3 SWAP1 POP JUMP JUMPDEST PUSH1 0x0 PUSH1 0x20 DUP3 DUP5 SUB SLT ISZERO PUSH2 0xC88 JUMPI PUSH1 0x0 DUP1 REVERT JUMPDEST DUP2 MLOAD DUP1 ISZERO ISZERO DUP2 EQ PUSH2 0xC3C JUMPI PUSH1 0x0 DUP1 REVERT JUMPDEST PUSH1 0x0 PUSH1 0x20 DUP3 DUP5 SUB SLT ISZERO PUSH2 0xCAA JUMPI PUSH1 0x0 DUP1 REVERT JUMPDEST POP CALLDATALOAD SWAP2 SWAP1 POP JUMP JUMPDEST PUSH1 0x0 DUP1 PUSH1 0x40 DUP4 DUP6 SUB SLT ISZERO PUSH2 0xCC4 JUMPI PUSH1 0x0 DUP1 REVERT JUMPDEST DUP3 CALLDATALOAD SWAP2 POP PUSH2 0xC6D PUSH1 0x20 DUP5 ADD PUSH2 0xBEB JUMP JUMPDEST PUSH1 0x0 DUP1 PUSH1 0x0 DUP1 PUSH1 0x0 PUSH1 0xA0 DUP7 DUP9 SUB SLT ISZERO PUSH2 0xCEC JUMPI PUSH1 0x0 DUP1 REVERT JUMPDEST PUSH2 0xCF5 DUP7 PUSH2 0xC07 JUMP JUMPDEST SWAP5 POP PUSH1 0x20 DUP7 ADD MLOAD SWAP4 POP PUSH1 0x40 DUP7 ADD MLOAD SWAP3 POP PUSH1 0x60 DUP7 ADD MLOAD SWAP2 POP PUSH2 0xD18 PUSH1 0x80 DUP8 ADD PUSH2 0xC07 JUMP JUMPDEST SWAP1 POP SWAP3 SWAP6 POP SWAP3 SWAP6 SWAP1 SWAP4 POP JUMP JUMPDEST PUSH1 0x0 PUSH1 0x20 DUP3 DUP5 SUB SLT ISZERO PUSH2 0xD36 JUMPI PUSH1 0x0 DUP1 REVERT JUMPDEST DUP2 MLOAD PUSH1 0xFF DUP2 AND DUP2 EQ PUSH2 0xC3C JUMPI PUSH1 0x0 DUP1 REVERT JUMPDEST PUSH1 0x0 PUSH1 0x20 DUP1 DUP4 MSTORE DUP4 MLOAD DUP1 DUP3 DUP6 ADD MSTORE PUSH1 0x0 JUMPDEST DUP2 DUP2 LT ISZERO PUSH2 0xD74 JUMPI DUP6 DUP2 ADD DUP4 ADD MLOAD DUP6 DUP3 ADD PUSH1 0x40 ADD MSTORE DUP3 ADD PUSH2 0xD58 JUMP JUMPDEST DUP2 DUP2 GT ISZERO PUSH2 0xD86 JUMPI PUSH1 0x0 PUSH1 0x40 DUP4 DUP8 ADD ADD MSTORE JUMPDEST POP PUSH1 0x1F ADD PUSH1 0x1F NOT AND SWAP3 SWAP1 SWAP3 ADD PUSH1 0x40 ADD SWAP4 SWAP3 POP POP POP JUMP JUMPDEST PUSH1 0x20 DUP1 DUP3 MSTORE DUP2 DUP2 ADD MSTORE PUSH32 0x4F776E61626C653A2063616C6C6572206973206E6F7420746865206F776E6572 PUSH1 0x40 DUP3 ADD MSTORE PUSH1 0x60 ADD SWAP1 JUMP JUMPDEST PUSH1 0x0 DUP3 NOT DUP3 GT ISZERO PUSH2 0xDE4 JUMPI PUSH2 0xDE4 PUSH2 0xF6B JUMP JUMPDEST POP ADD SWAP1 JUMP JUMPDEST PUSH1 0x0 DUP3 PUSH2 0xE06 JUMPI PUSH4 0x4E487B71 PUSH1 0xE0 SHL PUSH1 0x0 MSTORE PUSH1 0x12 PUSH1 0x4 MSTORE PUSH1 0x24 PUSH1 0x0 REVERT JUMPDEST POP DIV SWAP1 JUMP JUMPDEST PUSH1 0x1 DUP2 DUP2 JUMPDEST DUP1 DUP6 GT ISZERO PUSH2 0xE46 JUMPI DUP2 PUSH1 0x0 NOT DIV DUP3 GT ISZERO PUSH2 0xE2C JUMPI PUSH2 0xE2C PUSH2 0xF6B JUMP JUMPDEST DUP1 DUP6 AND ISZERO PUSH2 0xE39 JUMPI SWAP2 DUP2 MUL SWAP2 JUMPDEST SWAP4 DUP5 SHR SWAP4 SWAP1 DUP1 MUL SWAP1 PUSH2 0xE10 JUMP JUMPDEST POP SWAP3 POP SWAP3 SWAP1 POP JUMP JUMPDEST PUSH1 0x0 PUSH2 0xC3C DUP4 DUP4 PUSH1 0x0 DUP3 PUSH2 0xE64 JUMPI POP PUSH1 0x1 PUSH2 0x482 JUMP JUMPDEST DUP2 PUSH2 0xE71 JUMPI POP PUSH1 0x0 PUSH2 0x482 JUMP JUMPDEST DUP2 PUSH1 0x1 DUP2 EQ PUSH2 0xE87 JUMPI PUSH1 0x2 DUP2 EQ PUSH2 0xE91 JUMPI PUSH2 0xEAD JUMP JUMPDEST PUSH1 0x1 SWAP2 POP POP PUSH2 0x482 JUMP JUMPDEST PUSH1 0xFF DUP5 GT ISZERO PUSH2 0xEA2 JUMPI PUSH2 0xEA2 PUSH2 0xF6B JUMP JUMPDEST POP POP PUSH1 0x1 DUP3 SHL PUSH2 0x482 JUMP JUMPDEST POP PUSH1 0x20 DUP4 LT PUSH2 0x133 DUP4 LT AND PUSH1 0x4E DUP5 LT PUSH1 0xB DUP5 LT AND OR ISZERO PUSH2 0xED0 JUMPI POP DUP2 DUP2 EXP PUSH2 0x482 JUMP JUMPDEST PUSH2 0xEDA DUP4 DUP4 PUSH2 0xE0B JUMP JUMPDEST DUP1 PUSH1 0x0 NOT DIV DUP3 GT ISZERO PUSH2 0xEEE JUMPI PUSH2 0xEEE PUSH2 0xF6B JUMP JUMPDEST MUL SWAP4 SWAP3 POP POP POP JUMP JUMPDEST PUSH1 0x0 DUP2 PUSH1 0x0 NOT DIV DUP4 GT DUP3 ISZERO ISZERO AND ISZERO PUSH2 0xF10 JUMPI PUSH2 0xF10 PUSH2 0xF6B JUMP JUMPDEST POP MUL SWAP1 JUMP JUMPDEST PUSH1 0x1 DUP2 DUP2 SHR SWAP1 DUP3 AND DUP1 PUSH2 0xF29 JUMPI PUSH1 0x7F DUP3 AND SWAP2 POP JUMPDEST PUSH1 0x20 DUP3 LT DUP2 EQ ISZERO PUSH2 0xF4A JUMPI PUSH4 0x4E487B71 PUSH1 0xE0 SHL PUSH1 0x0 MSTORE PUSH1 0x22 PUSH1 0x4 MSTORE PUSH1 0x24 PUSH1 0x0 REVERT JUMPDEST POP SWAP2 SWAP1 POP JUMP JUMPDEST PUSH1 0x0 PUSH1 0x0 NOT DUP3 EQ ISZERO PUSH2 0xF64 JUMPI PUSH2 0xF64 PUSH2 0xF6B JUMP JUMPDEST POP PUSH1 0x1 ADD SWAP1 JUMP JUMPDEST PUSH4 0x4E487B71 PUSH1 0xE0 SHL PUSH1 0x0 MSTORE PUSH1 0x11 PUSH1 0x4 MSTORE PUSH1 0x24 PUSH1 0x0 REVERT JUMPDEST PUSH4 0x4E487B71 PUSH1 0xE0 SHL PUSH1 0x0 MSTORE PUSH1 0x32 PUSH1 0x4 MSTORE PUSH1 0x24 PUSH1 0x0 REVERT INVALID LOG2 PUSH5 0x6970667358 0x22 SLT KECCAK256 CALLDATALOAD 0xCF PUSH2 0x276E 0xE0 DELEGATECALL PUSH18 0x34EA3AD44D3698A7C5F1BDD8F6E5235AC0A6 0x2B EXP PUSH25 0xB2B7D864736F6C634300080700330000000000000000000000 ",
  "sha1": "92d16de5cf7368bedc3458e5d415c860a5739053",
  "source": "// SPDX-License-Identifier: MIT\npragma solidity ^0.8.0;\nimport \"OpenZeppelin/openzeppelin-contracts@4.0.0/contracts/token/ERC20/IERC20.sol\";\nimport \"OpenZeppelin/openzeppelin-contracts@4.0.0/contracts/access/Ownable.sol\";\nimport \"smartcontractkit/chainlink-brownie-contracts@1.0.2/contracts/src/v0.6/interfaces/AggregatorV3Interface.sol\";\n\ncontract Farm_token is Ownable{\n\n    IERC20 public dapp_token;\n    mapping(address => mapping(address => uint256)) public Stakingamount;\n    mapping(address => bool) public Is_staking;\n    mapping(address => address) public PriceFeedAddress; \n\n    address[] public Staking_list;\n    address[] public Allowed_tokens;\n\n    string public newbalance = \"hi newbalance\";\n\n    event Amount(uint256);\n\n    event User(address);\n\n    event Print(string);\n\n    modifier able_tostake(address _token){\n        require(Stakingamount[_token][msg.sender] > 0 && Is_staking[msg.sender] == false);\n        _;\n    }\n\n    modifier already_staking(){\n        require(Is_staking[msg.sender] == true);\n        _;\n    }\n    \n    constructor (address _dapptokenaddress){\n        dapp_token = IERC20(_dapptokenaddress);\n    }\n    \n    function _add_allowedtokens (address _token) public onlyOwner{\n        Allowed_tokens.push(_token);\n    }\n\n    function _allowed_tokens(address _token) public returns (bool){\n        for(uint256 i = 0; i < Allowed_tokens.length; i++){\n            if(Allowed_tokens[i] == _token){\n                return true;\n            }\n        }\n        return false;\n    }\n    //Stake func\n    function stake(uint256 _amount, address _token) public {\n        // require sender has eth in account and is not already staked. And token is allowed\n        IERC20(_token).transferFrom(msg.sender, address(this), _amount);\n\n        Stakingamount[_token][msg.sender] = Stakingamount[_token][msg.sender] + _amount; \n        Is_staking[msg.sender] = true;\n        Staking_list.push(msg.sender);\n    }\n\n  /*   function get_value(int balance) public {\n        newbalance = balance;\n    } */\n\n    function token_balance(address _token) public view returns(string memory){\n        //uint256 balance = Stakingamount[_tokenaddress][msg.sender];\n        string memory balance = \"100\";\n        return balance;\n    }\n    \n    //UNstake func\n    function unstake(address _token) public already_staking{\n        //require user is already staking\n        uint256 balance = Stakingamount[_token][msg.sender];\n        Stakingamount[_token][msg.sender] = Stakingamount[_token][msg.sender] = 0;\n\n        IERC20(_token).transfer(msg.sender, balance);\n        Is_staking[msg.sender] = false;\n    }\n\n    function set_price_feedcontract(address _token, address _pricefeed) public onlyOwner{\n        PriceFeedAddress[_token] = _pricefeed;\n    }\n\n    function token_price_converter(address _user, address _token) public returns(uint256){\n        (uint256 price, uint256 decimals) = get_token_price_feed(_token);\n        \n        uint256 result = (Stakingamount[_token][_user] * price / (10 **decimals)); \n\n        emit Print(\"Result--->\");\n        emit Amount(result);\n\n        return result;\n    }\n\n    function get_token_price_feed(address _token) public returns(uint256, uint256){\n        address curr_pricefeed_address = PriceFeedAddress[_token];\n        \n        AggregatorV3Interface priceFeed = AggregatorV3Interface(curr_pricefeed_address);\n        (\n            ,int price,,,\n        ) = priceFeed.latestRoundData();\n        uint256 decimal = uint256(priceFeed.decimals());\n        return (uint256(price), decimal);\n    }\n    //issue rewards to those who are staking\n \n\n    function issue_tokens(address _token, address _account) public returns(bool){        \n        for(uint i = 0; i < Staking_list.length; i++){\n                //look how much ETH they are staking and give the output as dapp token so 1 ETH current price perhaps 1500 == 1500 Dapp tokens \n                //reward to the staker\n                address reciptiant = Staking_list[i];\n                if(_account == reciptiant){\n                    uint256 balance = Stakingamount[_token][reciptiant];\n                    uint256 issue_amount = token_price_converter(_account, _token);\n                 \n                    dapp_token.transfer(reciptiant, issue_amount);\n                    return true;\n                }\n        }\n        return false;\n    }\n  \n}",
  "sourcePath": "contracts/Farm_token.sol",
  "type": "contract"
}