{
  "abi": [
    {
      "inputs": [],
      "name": "boolean",
      "outputs": [
        {
          "internalType": "bool",
          "name": "",
          "type": "bool"
        }
      ],
      "stateMutability": "payable",
      "type": "function"
    },
    {
      "inputs": [],
      "name": "hello_world",
      "outputs": [
        {
          "internalType": "string",
          "name": "",
          "type": "string"
        }
      ],
      "stateMutability": "view",
      "type": "function"
    },
    {
      "inputs": [],
      "name": "new_hello_world",
      "outputs": [
        {
          "internalType": "string",
          "name": "",
          "type": "string"
        }
      ],
      "stateMutability": "payable",
      "type": "function"
    }
  ],
  "bytecode": "60c0604052600b60808190526a1a195b1b1bc81ddbdc9b1960aa1b60a090815261002c916000919061003f565b5034801561003957600080fd5b50610113565b82805461004b906100d8565b90600052602060002090601f01602090048101928261006d57600085556100b3565b82601f1061008657805160ff19168380011785556100b3565b828001600101855582156100b3579182015b828111156100b3578251825591602001919060010190610098565b506100bf9291506100c3565b5090565b5b808211156100bf57600081556001016100c4565b600181811c908216806100ec57607f821691505b6020821081141561010d57634e487b7160e01b600052602260045260246000fd5b50919050565b6102ae806101226000396000f3fe6080604052600436106100345760003560e01c80635e60ba02146100395780639476f92214610057578063c5b57bdb1461006c575b600080fd5b61004161007b565b60405161004e91906101e8565b60405180910390f35b34801561006357600080fd5b50610041610140565b6040516001815260200161004e565b60408051808201909152600980825268189e59481ddbdc9b1960ba1b60209092019182526060916100af916000919061014f565b50600080546100bd9061023d565b80601f01602080910402602001604051908101604052809291908181526020018280546100e99061023d565b80156101365780601f1061010b57610100808354040283529160200191610136565b820191906000526020600020905b81548152906001019060200180831161011957829003601f168201915b5050505050905090565b6060600080546100bd9061023d565b82805461015b9061023d565b90600052602060002090601f01602090048101928261017d57600085556101c3565b82601f1061019657805160ff19168380011785556101c3565b828001600101855582156101c3579182015b828111156101c35782518255916020019190600101906101a8565b506101cf9291506101d3565b5090565b5b808211156101cf57600081556001016101d4565b600060208083528351808285015260005b81811015610215578581018301518582016040015282016101f9565b81811115610227576000604083870101525b50601f01601f1916929092016040019392505050565b600181811c9082168061025157607f821691505b6020821081141561027257634e487b7160e01b600052602260045260246000fd5b5091905056fea26469706673582212203f5307532385c888b3c6a3fefe946bbac9e02c5e5cbf6ce3bab2b6e6e71798c964736f6c63430008070033",
  "bytecodeSha1": "c5e09da4a3eb68cc42c2706c672add794ba5c8dd",
  "compiler": {
    "evm_version": "istanbul",
    "optimizer": {
      "enabled": true,
      "runs": 200
    },
    "version": "0.8.7+commit.e28d00a7"
  },
  "contractName": "Test",
  "language": "Solidity",
  "natspec": {
    "kind": "dev",
    "methods": {},
    "version": 1
  },
  "opcodes": "PUSH1 0x80 PUSH1 0x40 MSTORE PUSH1 0x4 CALLDATASIZE LT PUSH2 0x34 JUMPI PUSH1 0x0 CALLDATALOAD PUSH1 0xE0 SHR DUP1 PUSH4 0x5E60BA02 EQ PUSH2 0x39 JUMPI DUP1 PUSH4 0x9476F922 EQ PUSH2 0x57 JUMPI DUP1 PUSH4 0xC5B57BDB EQ PUSH2 0x6C JUMPI JUMPDEST PUSH1 0x0 DUP1 REVERT JUMPDEST PUSH2 0x41 PUSH2 0x7B JUMP JUMPDEST PUSH1 0x40 MLOAD PUSH2 0x4E SWAP2 SWAP1 PUSH2 0x1E8 JUMP JUMPDEST PUSH1 0x40 MLOAD DUP1 SWAP2 SUB SWAP1 RETURN JUMPDEST CALLVALUE DUP1 ISZERO PUSH2 0x63 JUMPI PUSH1 0x0 DUP1 REVERT JUMPDEST POP PUSH2 0x41 PUSH2 0x140 JUMP JUMPDEST PUSH1 0x40 MLOAD PUSH1 0x1 DUP2 MSTORE PUSH1 0x20 ADD PUSH2 0x4E JUMP JUMPDEST PUSH1 0x40 DUP1 MLOAD DUP1 DUP3 ADD SWAP1 SWAP2 MSTORE PUSH1 0x9 DUP1 DUP3 MSTORE PUSH9 0x189E59481DDBDC9B19 PUSH1 0xBA SHL PUSH1 0x20 SWAP1 SWAP3 ADD SWAP2 DUP3 MSTORE PUSH1 0x60 SWAP2 PUSH2 0xAF SWAP2 PUSH1 0x0 SWAP2 SWAP1 PUSH2 0x14F JUMP JUMPDEST POP PUSH1 0x0 DUP1 SLOAD PUSH2 0xBD SWAP1 PUSH2 0x23D JUMP JUMPDEST DUP1 PUSH1 0x1F ADD PUSH1 0x20 DUP1 SWAP2 DIV MUL PUSH1 0x20 ADD PUSH1 0x40 MLOAD SWAP1 DUP2 ADD PUSH1 0x40 MSTORE DUP1 SWAP3 SWAP2 SWAP1 DUP2 DUP2 MSTORE PUSH1 0x20 ADD DUP3 DUP1 SLOAD PUSH2 0xE9 SWAP1 PUSH2 0x23D JUMP JUMPDEST DUP1 ISZERO PUSH2 0x136 JUMPI DUP1 PUSH1 0x1F LT PUSH2 0x10B JUMPI PUSH2 0x100 DUP1 DUP4 SLOAD DIV MUL DUP4 MSTORE SWAP2 PUSH1 0x20 ADD SWAP2 PUSH2 0x136 JUMP JUMPDEST DUP3 ADD SWAP2 SWAP1 PUSH1 0x0 MSTORE PUSH1 0x20 PUSH1 0x0 KECCAK256 SWAP1 JUMPDEST DUP2 SLOAD DUP2 MSTORE SWAP1 PUSH1 0x1 ADD SWAP1 PUSH1 0x20 ADD DUP1 DUP4 GT PUSH2 0x119 JUMPI DUP3 SWAP1 SUB PUSH1 0x1F AND DUP3 ADD SWAP2 JUMPDEST POP POP POP POP POP SWAP1 POP SWAP1 JUMP JUMPDEST PUSH1 0x60 PUSH1 0x0 DUP1 SLOAD PUSH2 0xBD SWAP1 PUSH2 0x23D JUMP JUMPDEST DUP3 DUP1 SLOAD PUSH2 0x15B SWAP1 PUSH2 0x23D JUMP JUMPDEST SWAP1 PUSH1 0x0 MSTORE PUSH1 0x20 PUSH1 0x0 KECCAK256 SWAP1 PUSH1 0x1F ADD PUSH1 0x20 SWAP1 DIV DUP2 ADD SWAP3 DUP3 PUSH2 0x17D JUMPI PUSH1 0x0 DUP6 SSTORE PUSH2 0x1C3 JUMP JUMPDEST DUP3 PUSH1 0x1F LT PUSH2 0x196 JUMPI DUP1 MLOAD PUSH1 0xFF NOT AND DUP4 DUP1 ADD OR DUP6 SSTORE PUSH2 0x1C3 JUMP JUMPDEST DUP3 DUP1 ADD PUSH1 0x1 ADD DUP6 SSTORE DUP3 ISZERO PUSH2 0x1C3 JUMPI SWAP2 DUP3 ADD JUMPDEST DUP3 DUP2 GT ISZERO PUSH2 0x1C3 JUMPI DUP3 MLOAD DUP3 SSTORE SWAP2 PUSH1 0x20 ADD SWAP2 SWAP1 PUSH1 0x1 ADD SWAP1 PUSH2 0x1A8 JUMP JUMPDEST POP PUSH2 0x1CF SWAP3 SWAP2 POP PUSH2 0x1D3 JUMP JUMPDEST POP SWAP1 JUMP JUMPDEST JUMPDEST DUP1 DUP3 GT ISZERO PUSH2 0x1CF JUMPI PUSH1 0x0 DUP2 SSTORE PUSH1 0x1 ADD PUSH2 0x1D4 JUMP JUMPDEST PUSH1 0x0 PUSH1 0x20 DUP1 DUP4 MSTORE DUP4 MLOAD DUP1 DUP3 DUP6 ADD MSTORE PUSH1 0x0 JUMPDEST DUP2 DUP2 LT ISZERO PUSH2 0x215 JUMPI DUP6 DUP2 ADD DUP4 ADD MLOAD DUP6 DUP3 ADD PUSH1 0x40 ADD MSTORE DUP3 ADD PUSH2 0x1F9 JUMP JUMPDEST DUP2 DUP2 GT ISZERO PUSH2 0x227 JUMPI PUSH1 0x0 PUSH1 0x40 DUP4 DUP8 ADD ADD MSTORE JUMPDEST POP PUSH1 0x1F ADD PUSH1 0x1F NOT AND SWAP3 SWAP1 SWAP3 ADD PUSH1 0x40 ADD SWAP4 SWAP3 POP POP POP JUMP JUMPDEST PUSH1 0x1 DUP2 DUP2 SHR SWAP1 DUP3 AND DUP1 PUSH2 0x251 JUMPI PUSH1 0x7F DUP3 AND SWAP2 POP JUMPDEST PUSH1 0x20 DUP3 LT DUP2 EQ ISZERO PUSH2 0x272 JUMPI PUSH4 0x4E487B71 PUSH1 0xE0 SHL PUSH1 0x0 MSTORE PUSH1 0x22 PUSH1 0x4 MSTORE PUSH1 0x24 PUSH1 0x0 REVERT JUMPDEST POP SWAP2 SWAP1 POP JUMP INVALID LOG2 PUSH5 0x6970667358 0x22 SLT KECCAK256 EXTCODEHASH MSTORE8 SMOD MSTORE8 0x23 DUP6 0xC8 DUP9 0xB3 0xC6 LOG3 INVALID INVALID SWAP5 PUSH12 0xBAC9E02C5E5CBF6CE3BAB2B6 0xE6 0xE7 OR SWAP9 0xC9 PUSH5 0x736F6C6343 STOP ADDMOD SMOD STOP CALLER ",
  "sha1": "3df028b0a1c1e5698f637edebf50a8258e163143",
  "source": "pragma solidity ^0.8.0;\n\ncontract Test {\n\n    string input= 'hello world';\n    \n\n    function hello_world()public view returns(string memory){\n        return input;\n    }\n\n    function new_hello_world() public payable returns(string memory){\n        input = 'bye world';\n        return input;\n    }\n\n    function boolean() public payable returns(bool){\n        return true;\n    }\n}\n",
  "sourcePath": "contracts/Test.sol",
  "type": "contract"
}